{
    "_format": "hh-sol-artifact-1",
    "contractName": "G2Lottery",
    "sourceName": "contracts/G2Lottery.sol",
    "abi": [
        {
            "inputs": [
                {
                    "internalType": "string",
                    "name": "tokenName",
                    "type": "string"
                },
                {
                    "internalType": "string",
                    "name": "tokenSymbol",
                    "type": "string"
                },
                {
                    "internalType": "uint256",
                    "name": "_purchaseRatio",
                    "type": "uint256"
                },
                {
                    "internalType": "uint256",
                    "name": "_betPrice",
                    "type": "uint256"
                },
                {
                    "internalType": "uint256",
                    "name": "_betFee",
                    "type": "uint256"
                }
            ],
            "stateMutability": "nonpayable",
            "type": "constructor"
        },
        {
            "anonymous": false,
            "inputs": [
                {
                    "indexed": true,
                    "internalType": "address",
                    "name": "previousOwner",
                    "type": "address"
                },
                {
                    "indexed": true,
                    "internalType": "address",
                    "name": "newOwner",
                    "type": "address"
                }
            ],
            "name": "OwnershipTransferred",
            "type": "event"
        },
        {
            "inputs": [],
            "name": "bet",
            "outputs": [],
            "stateMutability": "nonpayable",
            "type": "function"
        },
        {
            "inputs": [],
            "name": "betFee",
            "outputs": [
                {
                    "internalType": "uint256",
                    "name": "",
                    "type": "uint256"
                }
            ],
            "stateMutability": "view",
            "type": "function"
        },
        {
            "inputs": [
                {
                    "internalType": "uint256",
                    "name": "times",
                    "type": "uint256"
                }
            ],
            "name": "betMany",
            "outputs": [],
            "stateMutability": "nonpayable",
            "type": "function"
        },
        {
            "inputs": [],
            "name": "betPrice",
            "outputs": [
                {
                    "internalType": "uint256",
                    "name": "",
                    "type": "uint256"
                }
            ],
            "stateMutability": "view",
            "type": "function"
        },
        {
            "inputs": [],
            "name": "betsClosingTime",
            "outputs": [
                {
                    "internalType": "uint256",
                    "name": "",
                    "type": "uint256"
                }
            ],
            "stateMutability": "view",
            "type": "function"
        },
        {
            "inputs": [],
            "name": "betsOpen",
            "outputs": [
                {
                    "internalType": "bool",
                    "name": "",
                    "type": "bool"
                }
            ],
            "stateMutability": "view",
            "type": "function"
        },
        {
            "inputs": [],
            "name": "closeLottery",
            "outputs": [],
            "stateMutability": "nonpayable",
            "type": "function"
        },
        {
            "inputs": [],
            "name": "getRandomNumber",
            "outputs": [
                {
                    "internalType": "uint256",
                    "name": "randomNumber",
                    "type": "uint256"
                }
            ],
            "stateMutability": "view",
            "type": "function"
        },
        {
            "inputs": [
                {
                    "internalType": "uint256",
                    "name": "closingTime",
                    "type": "uint256"
                }
            ],
            "name": "openBets",
            "outputs": [],
            "stateMutability": "nonpayable",
            "type": "function"
        },
        {
            "inputs": [],
            "name": "owner",
            "outputs": [
                {
                    "internalType": "address",
                    "name": "",
                    "type": "address"
                }
            ],
            "stateMutability": "view",
            "type": "function"
        },
        {
            "inputs": [],
            "name": "ownerPool",
            "outputs": [
                {
                    "internalType": "uint256",
                    "name": "",
                    "type": "uint256"
                }
            ],
            "stateMutability": "view",
            "type": "function"
        },
        {
            "inputs": [
                {
                    "internalType": "uint256",
                    "name": "amount",
                    "type": "uint256"
                }
            ],
            "name": "ownerWithdraw",
            "outputs": [],
            "stateMutability": "nonpayable",
            "type": "function"
        },
        {
            "inputs": [],
            "name": "paymentToken",
            "outputs": [
                {
                    "internalType": "contract LotteryToken",
                    "name": "",
                    "type": "address"
                }
            ],
            "stateMutability": "view",
            "type": "function"
        },
        {
            "inputs": [
                {
                    "internalType": "address",
                    "name": "",
                    "type": "address"
                }
            ],
            "name": "prize",
            "outputs": [
                {
                    "internalType": "uint256",
                    "name": "",
                    "type": "uint256"
                }
            ],
            "stateMutability": "view",
            "type": "function"
        },
        {
            "inputs": [],
            "name": "prizePool",
            "outputs": [
                {
                    "internalType": "uint256",
                    "name": "",
                    "type": "uint256"
                }
            ],
            "stateMutability": "view",
            "type": "function"
        },
        {
            "inputs": [
                {
                    "internalType": "uint256",
                    "name": "amount",
                    "type": "uint256"
                }
            ],
            "name": "prizeWithdraw",
            "outputs": [],
            "stateMutability": "nonpayable",
            "type": "function"
        },
        {
            "inputs": [],
            "name": "purchaseRatio",
            "outputs": [
                {
                    "internalType": "uint256",
                    "name": "",
                    "type": "uint256"
                }
            ],
            "stateMutability": "view",
            "type": "function"
        },
        {
            "inputs": [],
            "name": "purchaseTokens",
            "outputs": [],
            "stateMutability": "payable",
            "type": "function"
        },
        {
            "inputs": [],
            "name": "renounceOwnership",
            "outputs": [],
            "stateMutability": "nonpayable",
            "type": "function"
        },
        {
            "inputs": [
                {
                    "internalType": "uint256",
                    "name": "amount",
                    "type": "uint256"
                }
            ],
            "name": "returnTokens",
            "outputs": [],
            "stateMutability": "nonpayable",
            "type": "function"
        },
        {
            "inputs": [
                {
                    "internalType": "address",
                    "name": "newOwner",
                    "type": "address"
                }
            ],
            "name": "transferOwnership",
            "outputs": [],
            "stateMutability": "nonpayable",
            "type": "function"
        }
    ],
    "bytecode": "0x60806040523480156200001157600080fd5b506040516200289d3803806200289d8339810160408190526200003491620001da565b6200003f33620000af565b84846040516200004f90620000ff565b6200005c9291906200028d565b604051809103906000f08015801562000079573d6000803e3d6000fd5b50600180546001600160a01b0319166001600160a01b039290921691909117905560029290925560035560045550620002bf9050565b600080546001600160a01b038381166001600160a01b0319831681178455604051919092169283917f8be0079c531659141344cd1fd0a4f28419497f9722a3daafe3b4186f6b6457e09190a35050565b611850806200104d83390190565b634e487b7160e01b600052604160045260246000fd5b60005b838110156200014057818101518382015260200162000126565b50506000910152565b600082601f8301126200015b57600080fd5b81516001600160401b03808211156200017857620001786200010d565b604051601f8301601f19908116603f01168101908282118183101715620001a357620001a36200010d565b81604052838152866020858801011115620001bd57600080fd5b620001d084602083016020890162000123565b9695505050505050565b600080600080600060a08688031215620001f357600080fd5b85516001600160401b03808211156200020b57600080fd5b6200021989838a0162000149565b965060208801519150808211156200023057600080fd5b506200023f8882890162000149565b60408801516060890151608090990151979a919950979695509350505050565b600081518084526200027981602086016020860162000123565b601f01601f19169290920160200192915050565b604081526000620002a260408301856200025f565b8281036020840152620002b681856200025f565b95945050505050565b610d7e80620002cf6000396000f3fe60806040526004361061016a5760003560e01c8063719ce73e116100cb57806395cadc471161007f578063d1b258ff11610059578063d1b258ff14610372578063dbdff2c11461039c578063f2fde38b146103af57600080fd5b806395cadc4714610326578063990a49f51461033c578063cfd8a1751461035c57600080fd5b8063841e6ce9116100b0578063841e6ce9146102c55780638adf9c1f146102db5780638da5cb5b1461030857600080fd5b8063719ce73e1461028f578063729e91e9146102a557600080fd5b806333f707d1116101225780633cc121e6116101075780633cc121e6146102455780636fd0981614610265578063715018a61461027a57600080fd5b806333f707d1146102055780633ae1786f1461022557600080fd5b80632b65e040116101535780632b65e040146101af5780633013ce29146101c55780633290ce29146101fd57600080fd5b806311610c251461016f57806318c3496514610186575b600080fd5b34801561017b57600080fd5b506101846103cf565b005b34801561019257600080fd5b5061019c60085481565b6040519081526020015b60405180910390f35b3480156101bb57600080fd5b5061019c60065481565b3480156101d157600080fd5b506001546101e5906001600160a01b031681565b6040516001600160a01b0390911681526020016101a6565b610184610575565b34801561021157600080fd5b50610184610220366004610c19565b610611565b34801561023157600080fd5b50610184610240366004610c19565b610714565b34801561025157600080fd5b50610184610260366004610c19565b6107cc565b34801561027157600080fd5b5061018461084a565b34801561028657600080fd5b50610184610980565b34801561029b57600080fd5b5061019c60055481565b3480156102b157600080fd5b506101846102c0366004610c19565b610994565b3480156102d157600080fd5b5061019c60045481565b3480156102e757600080fd5b5061019c6102f6366004610c32565b60096020526000908152604090205481565b34801561031457600080fd5b506000546001600160a01b03166101e5565b34801561033257600080fd5b5061019c60025481565b34801561034857600080fd5b50610184610357366004610c19565b6109c1565b34801561036857600080fd5b5061019c60035481565b34801561037e57600080fd5b5060075461038c9060ff1681565b60405190151581526020016101a6565b3480156103a857600080fd5b504461019c565b3480156103bb57600080fd5b506101846103ca366004610c32565b610aa3565b60075460ff1680156103e2575060085442105b6104335760405162461bcd60e51b815260206004820152601160248201527f4c6f747465727920697320636c6f73656400000000000000000000000000000060448201526064015b60405180910390fd5b600454600660008282546104479190610c78565b909155505060035460058054600090610461908490610c78565b9091555050600a8054600181810183556000929092527fc65a7bb8d6351c1cf70c95a316cc6a92839c986682d98bc35f958f4883f9d2a801805473ffffffffffffffffffffffffffffffffffffffff19163390811790915590546004546003546001600160a01b0392909216926323b872dd92909130916104e29190610c78565b6040517fffffffff0000000000000000000000000000000000000000000000000000000060e086901b1681526001600160a01b03938416600482015292909116602483015260448201526064016020604051808303816000875af115801561054e573d6000803e3d6000fd5b505050506040513d601f19601f820116820180604052508101906105729190610c91565b50565b6001546002546001600160a01b03909116906340c10f199033906105999034610cb3565b6040517fffffffff0000000000000000000000000000000000000000000000000000000060e085901b1681526001600160a01b0390921660048301526024820152604401600060405180830381600087803b1580156105f757600080fd5b505af115801561060b573d6000803e3d6000fd5b50505050565b610619610b30565b60065481111561066b5760405162461bcd60e51b815260206004820152601960248201527f4e6f7420656e6f756768206665657320636f6c6c656374656400000000000000604482015260640161042a565b806006600082825461067d9190610cca565b90915550506001546040517fa9059cbb000000000000000000000000000000000000000000000000000000008152336004820152602481018390526001600160a01b039091169063a9059cbb906044016020604051808303816000875af11580156106ec573d6000803e3d6000fd5b505050506040513d601f19601f820116820180604052508101906107109190610c91565b5050565b6001546040517f79cc6790000000000000000000000000000000000000000000000000000000008152336004820152602481018390526001600160a01b03909116906379cc679090604401600060405180830381600087803b15801561077957600080fd5b505af115801561078d573d6000803e3d6000fd5b50506002543392506108fc91506107a49084610cf3565b6040518115909202916000818181858888f19350505050158015610710573d6000803e3d6000fd5b3360009081526009602052604090205481111561082b5760405162461bcd60e51b815260206004820152601060248201527f4e6f7420656e6f756768207072697a6500000000000000000000000000000000604482015260640161042a565b336000908152600960205260408120805483929061067d908490610cca565b60085442101561089c5760405162461bcd60e51b815260206004820152601160248201527f546f6f20736f6f6e20746f20636c6f7365000000000000000000000000000000604482015260640161042a565b60075460ff166108ee5760405162461bcd60e51b815260206004820152600e60248201527f416c726561647920636c6f736564000000000000000000000000000000000000604482015260640161042a565b600a541561097457600a546000906109069044610d07565b90506000600a828154811061091d5761091d610d1b565b60009182526020808320909101546005546001600160a01b03909116808452600990925260408320805492945090929091610959908490610c78565b90915550506000600581905561097190600a90610be7565b50505b6007805460ff19169055565b610988610b30565b6109926000610b8a565b565b600081116109a157600080fd5b8015610572576109af6103cf565b806109b981610d31565b9150506109a1565b6109c9610b30565b60075460ff1615610a1c5760405162461bcd60e51b815260206004820152600f60248201527f4c6f7474657279206973206f70656e0000000000000000000000000000000000604482015260640161042a565b428111610a915760405162461bcd60e51b815260206004820152602260248201527f436c6f73696e672074696d65206d75737420626520696e20746865206675747560448201527f7265000000000000000000000000000000000000000000000000000000000000606482015260840161042a565b6008556007805460ff19166001179055565b610aab610b30565b6001600160a01b038116610b275760405162461bcd60e51b815260206004820152602660248201527f4f776e61626c653a206e6577206f776e657220697320746865207a65726f206160448201527f6464726573730000000000000000000000000000000000000000000000000000606482015260840161042a565b61057281610b8a565b6000546001600160a01b031633146109925760405162461bcd60e51b815260206004820181905260248201527f4f776e61626c653a2063616c6c6572206973206e6f7420746865206f776e6572604482015260640161042a565b600080546001600160a01b0383811673ffffffffffffffffffffffffffffffffffffffff19831681178455604051919092169283917f8be0079c531659141344cd1fd0a4f28419497f9722a3daafe3b4186f6b6457e09190a35050565b508054600082559060005260206000209081019061057291905b80821115610c155760008155600101610c01565b5090565b600060208284031215610c2b57600080fd5b5035919050565b600060208284031215610c4457600080fd5b81356001600160a01b0381168114610c5b57600080fd5b9392505050565b634e487b7160e01b600052601160045260246000fd5b80820180821115610c8b57610c8b610c62565b92915050565b600060208284031215610ca357600080fd5b81518015158114610c5b57600080fd5b8082028115828204841417610c8b57610c8b610c62565b81810381811115610c8b57610c8b610c62565b634e487b7160e01b600052601260045260246000fd5b600082610d0257610d02610cdd565b500490565b600082610d1657610d16610cdd565b500690565b634e487b7160e01b600052603260045260246000fd5b600081610d4057610d40610c62565b50600019019056fea2646970667358221220d99eb98de190b48a29454e519905eaada16356afe82c608bb5501a862b7a9d7b64736f6c6343000811003360806040523480156200001157600080fd5b506040516200185038038062001850833981016040819052620000349162000203565b81816003620000448382620002fc565b506004620000538282620002fc565b50620000659150600090503362000099565b620000917f9f2df0fed2c77648de5860a4cc508cd0818c85b8b8a1ab4ceeef8d981c8956a63362000099565b5050620003c8565b60008281526005602090815260408083206001600160a01b038516845290915290205460ff166200013a5760008281526005602090815260408083206001600160a01b03851684529091529020805460ff19166001179055620000f93390565b6001600160a01b0316816001600160a01b0316837f2f8788117e7eff1d82e926ec794901d17c78024a50270940304540a733656f0d60405160405180910390a45b5050565b634e487b7160e01b600052604160045260246000fd5b600082601f8301126200016657600080fd5b81516001600160401b03808211156200018357620001836200013e565b604051601f8301601f19908116603f01168101908282118183101715620001ae57620001ae6200013e565b81604052838152602092508683858801011115620001cb57600080fd5b600091505b83821015620001ef5785820183015181830184015290820190620001d0565b600093810190920192909252949350505050565b600080604083850312156200021757600080fd5b82516001600160401b03808211156200022f57600080fd5b6200023d8683870162000154565b935060208501519150808211156200025457600080fd5b50620002638582860162000154565b9150509250929050565b600181811c908216806200028257607f821691505b602082108103620002a357634e487b7160e01b600052602260045260246000fd5b50919050565b601f821115620002f757600081815260208120601f850160051c81016020861015620002d25750805b601f850160051c820191505b81811015620002f357828155600101620002de565b5050505b505050565b81516001600160401b038111156200031857620003186200013e565b62000330816200032984546200026d565b84620002a9565b602080601f8311600181146200036857600084156200034f5750858301515b600019600386901b1c1916600185901b178555620002f3565b600085815260208120601f198616915b82811015620003995788860151825594840194600190910190840162000378565b5085821015620003b85787850151600019600388901b60f8161c191681555b5050505050600190811b01905550565b61147880620003d86000396000f3fe608060405234801561001057600080fd5b50600436106101825760003560e01c806342966c68116100d8578063a217fddf1161008c578063d539139311610066578063d53913931461033a578063d547741f14610361578063dd62ed3e1461037457600080fd5b8063a217fddf1461030c578063a457c2d714610314578063a9059cbb1461032757600080fd5b806379cc6790116100bd57806379cc6790146102b857806391d14854146102cb57806395d89b411461030457600080fd5b806342966c681461027c57806370a082311461028f57600080fd5b8063248a9ca31161013a57806336568abe1161011457806336568abe14610243578063395093511461025657806340c10f191461026957600080fd5b8063248a9ca3146101fc5780632f2ff15d1461021f578063313ce5671461023457600080fd5b8063095ea7b31161016b578063095ea7b3146101c457806318160ddd146101d757806323b872dd146101e957600080fd5b806301ffc9a71461018757806306fdde03146101af575b600080fd5b61019a61019536600461114c565b6103ad565b60405190151581526020015b60405180910390f35b6101b7610446565b6040516101a691906111b2565b61019a6101d2366004611201565b6104d8565b6002545b6040519081526020016101a6565b61019a6101f736600461122b565b6104f0565b6101db61020a366004611267565b60009081526005602052604090206001015490565b61023261022d366004611280565b610514565b005b604051601281526020016101a6565b610232610251366004611280565b61053e565b61019a610264366004611201565b6105cf565b610232610277366004611201565b61060e565b61023261028a366004611267565b610642565b6101db61029d3660046112ac565b6001600160a01b031660009081526020819052604090205490565b6102326102c6366004611201565b61064f565b61019a6102d9366004611280565b60009182526005602090815260408084206001600160a01b0393909316845291905290205460ff1690565b6101b7610664565b6101db600081565b61019a610322366004611201565b610673565b61019a610335366004611201565b61071d565b6101db7f9f2df0fed2c77648de5860a4cc508cd0818c85b8b8a1ab4ceeef8d981c8956a681565b61023261036f366004611280565b61072b565b6101db6103823660046112c7565b6001600160a01b03918216600090815260016020908152604080832093909416825291909152205490565b60007fffffffff0000000000000000000000000000000000000000000000000000000082167f7965db0b00000000000000000000000000000000000000000000000000000000148061044057507f01ffc9a7000000000000000000000000000000000000000000000000000000007fffffffff000000000000000000000000000000000000000000000000000000008316145b92915050565b606060038054610455906112f1565b80601f0160208091040260200160405190810160405280929190818152602001828054610481906112f1565b80156104ce5780601f106104a3576101008083540402835291602001916104ce565b820191906000526020600020905b8154815290600101906020018083116104b157829003601f168201915b5050505050905090565b6000336104e6818585610750565b5060019392505050565b6000336104fe8582856108a8565b61050985858561093a565b506001949350505050565b60008281526005602052604090206001015461052f81610b51565b6105398383610b5b565b505050565b6001600160a01b03811633146105c15760405162461bcd60e51b815260206004820152602f60248201527f416363657373436f6e74726f6c3a2063616e206f6e6c792072656e6f756e636560448201527f20726f6c657320666f722073656c66000000000000000000000000000000000060648201526084015b60405180910390fd5b6105cb8282610bfd565b5050565b3360008181526001602090815260408083206001600160a01b03871684529091528120549091906104e69082908690610609908790611341565b610750565b7f9f2df0fed2c77648de5860a4cc508cd0818c85b8b8a1ab4ceeef8d981c8956a661063881610b51565b6105398383610c80565b61064c3382610d5f565b50565b61065a8233836108a8565b6105cb8282610d5f565b606060048054610455906112f1565b3360008181526001602090815260408083206001600160a01b0387168452909152812054909190838110156107105760405162461bcd60e51b815260206004820152602560248201527f45524332303a2064656372656173656420616c6c6f77616e63652062656c6f7760448201527f207a65726f00000000000000000000000000000000000000000000000000000060648201526084016105b8565b6105098286868403610750565b6000336104e681858561093a565b60008281526005602052604090206001015461074681610b51565b6105398383610bfd565b6001600160a01b0383166107cb5760405162461bcd60e51b8152602060048201526024808201527f45524332303a20617070726f76652066726f6d20746865207a65726f2061646460448201527f726573730000000000000000000000000000000000000000000000000000000060648201526084016105b8565b6001600160a01b0382166108475760405162461bcd60e51b815260206004820152602260248201527f45524332303a20617070726f766520746f20746865207a65726f20616464726560448201527f737300000000000000000000000000000000000000000000000000000000000060648201526084016105b8565b6001600160a01b0383811660008181526001602090815260408083209487168084529482529182902085905590518481527f8c5be1e5ebec7d5bd14f71427d1e84f3dd0314c0f7b2291e5b200ac8c7c3b925910160405180910390a3505050565b6001600160a01b03838116600090815260016020908152604080832093861683529290522054600019811461093457818110156109275760405162461bcd60e51b815260206004820152601d60248201527f45524332303a20696e73756666696369656e7420616c6c6f77616e636500000060448201526064016105b8565b6109348484848403610750565b50505050565b6001600160a01b0383166109b65760405162461bcd60e51b815260206004820152602560248201527f45524332303a207472616e736665722066726f6d20746865207a65726f20616460448201527f647265737300000000000000000000000000000000000000000000000000000060648201526084016105b8565b6001600160a01b038216610a325760405162461bcd60e51b815260206004820152602360248201527f45524332303a207472616e7366657220746f20746865207a65726f206164647260448201527f657373000000000000000000000000000000000000000000000000000000000060648201526084016105b8565b6001600160a01b03831660009081526020819052604090205481811015610ac15760405162461bcd60e51b815260206004820152602660248201527f45524332303a207472616e7366657220616d6f756e742065786365656473206260448201527f616c616e6365000000000000000000000000000000000000000000000000000060648201526084016105b8565b6001600160a01b03808516600090815260208190526040808220858503905591851681529081208054849290610af8908490611341565b92505081905550826001600160a01b0316846001600160a01b03167fddf252ad1be2c89b69c2b068fc378daa952ba7f163c4a11628f55a4df523b3ef84604051610b4491815260200190565b60405180910390a3610934565b61064c8133610ee4565b60008281526005602090815260408083206001600160a01b038516845290915290205460ff166105cb5760008281526005602090815260408083206001600160a01b03851684529091529020805460ff19166001179055610bb93390565b6001600160a01b0316816001600160a01b0316837f2f8788117e7eff1d82e926ec794901d17c78024a50270940304540a733656f0d60405160405180910390a45050565b60008281526005602090815260408083206001600160a01b038516845290915290205460ff16156105cb5760008281526005602090815260408083206001600160a01b0385168085529252808320805460ff1916905551339285917ff6391f5c32d9c69d2a47ea670b442974b53935d1edc7fd64eb21e047a839171b9190a45050565b6001600160a01b038216610cd65760405162461bcd60e51b815260206004820152601f60248201527f45524332303a206d696e7420746f20746865207a65726f20616464726573730060448201526064016105b8565b8060026000828254610ce89190611341565b90915550506001600160a01b03821660009081526020819052604081208054839290610d15908490611341565b90915550506040518181526001600160a01b038316906000907fddf252ad1be2c89b69c2b068fc378daa952ba7f163c4a11628f55a4df523b3ef9060200160405180910390a35050565b6001600160a01b038216610ddb5760405162461bcd60e51b815260206004820152602160248201527f45524332303a206275726e2066726f6d20746865207a65726f2061646472657360448201527f730000000000000000000000000000000000000000000000000000000000000060648201526084016105b8565b6001600160a01b03821660009081526020819052604090205481811015610e6a5760405162461bcd60e51b815260206004820152602260248201527f45524332303a206275726e20616d6f756e7420657863656564732062616c616e60448201527f636500000000000000000000000000000000000000000000000000000000000060648201526084016105b8565b6001600160a01b0383166000908152602081905260408120838303905560028054849290610e99908490611354565b90915550506040518281526000906001600160a01b038516907fddf252ad1be2c89b69c2b068fc378daa952ba7f163c4a11628f55a4df523b3ef9060200160405180910390a3505050565b60008281526005602090815260408083206001600160a01b038516845290915290205460ff166105cb57610f22816001600160a01b03166014610f64565b610f2d836020610f64565b604051602001610f3e929190611367565b60408051601f198184030181529082905262461bcd60e51b82526105b8916004016111b2565b60606000610f738360026113e8565b610f7e906002611341565b67ffffffffffffffff811115610f9657610f966113ff565b6040519080825280601f01601f191660200182016040528015610fc0576020820181803683370190505b5090507f300000000000000000000000000000000000000000000000000000000000000081600081518110610ff757610ff7611415565b60200101906001600160f81b031916908160001a9053507f78000000000000000000000000000000000000000000000000000000000000008160018151811061104257611042611415565b60200101906001600160f81b031916908160001a90535060006110668460026113e8565b611071906001611341565b90505b60018111156110f6577f303132333435363738396162636465660000000000000000000000000000000085600f16601081106110b2576110b2611415565b1a60f81b8282815181106110c8576110c8611415565b60200101906001600160f81b031916908160001a90535060049490941c936110ef8161142b565b9050611074565b5083156111455760405162461bcd60e51b815260206004820181905260248201527f537472696e67733a20686578206c656e67746820696e73756666696369656e7460448201526064016105b8565b9392505050565b60006020828403121561115e57600080fd5b81357fffffffff000000000000000000000000000000000000000000000000000000008116811461114557600080fd5b60005b838110156111a9578181015183820152602001611191565b50506000910152565b60208152600082518060208401526111d181604085016020870161118e565b601f01601f19169190910160400192915050565b80356001600160a01b03811681146111fc57600080fd5b919050565b6000806040838503121561121457600080fd5b61121d836111e5565b946020939093013593505050565b60008060006060848603121561124057600080fd5b611249846111e5565b9250611257602085016111e5565b9150604084013590509250925092565b60006020828403121561127957600080fd5b5035919050565b6000806040838503121561129357600080fd5b823591506112a3602084016111e5565b90509250929050565b6000602082840312156112be57600080fd5b611145826111e5565b600080604083850312156112da57600080fd5b6112e3836111e5565b91506112a3602084016111e5565b600181811c9082168061130557607f821691505b60208210810361132557634e487b7160e01b600052602260045260246000fd5b50919050565b634e487b7160e01b600052601160045260246000fd5b808201808211156104405761044061132b565b818103818111156104405761044061132b565b7f416363657373436f6e74726f6c3a206163636f756e742000000000000000000081526000835161139f81601785016020880161118e565b7f206973206d697373696e6720726f6c652000000000000000000000000000000060179184019182015283516113dc81602884016020880161118e565b01602801949350505050565b80820281158282048414176104405761044061132b565b634e487b7160e01b600052604160045260246000fd5b634e487b7160e01b600052603260045260246000fd5b60008161143a5761143a61132b565b50600019019056fea26469706673582212207522c7c7b775e24d8626dab00c881d9071f526d633f18e2c69c4bcd45bb1ef0464736f6c63430008110033",
    "linkReferences": {},
    "deployedLinkReferences": {}
}